{
  "contractName": "Election",
  "abi": [
    {
      "inputs": [],
      "stateMutability": "nonpayable",
      "type": "constructor"
    },
    {
      "anonymous": false,
      "inputs": [
        {
          "indexed": true,
          "internalType": "uint256",
          "name": "_candidateId",
          "type": "uint256"
        }
      ],
      "name": "Voted",
      "type": "event"
    },
    {
      "inputs": [],
      "name": "candidatesCount",
      "outputs": [
        {
          "internalType": "uint256",
          "name": "",
          "type": "uint256"
        }
      ],
      "stateMutability": "view",
      "type": "function",
      "constant": true
    },
    {
      "inputs": [],
      "name": "electionState",
      "outputs": [
        {
          "internalType": "enum Election.State",
          "name": "",
          "type": "uint8"
        }
      ],
      "stateMutability": "view",
      "type": "function",
      "constant": true
    },
    {
      "inputs": [],
      "name": "owner",
      "outputs": [
        {
          "internalType": "address",
          "name": "",
          "type": "address"
        }
      ],
      "stateMutability": "view",
      "type": "function",
      "constant": true
    },
    {
      "inputs": [],
      "name": "totalVotes",
      "outputs": [
        {
          "internalType": "uint256",
          "name": "",
          "type": "uint256"
        }
      ],
      "stateMutability": "view",
      "type": "function",
      "constant": true
    },
    {
      "inputs": [],
      "name": "votersCount",
      "outputs": [
        {
          "internalType": "uint256",
          "name": "",
          "type": "uint256"
        }
      ],
      "stateMutability": "view",
      "type": "function",
      "constant": true
    },
    {
      "inputs": [],
      "name": "startElection",
      "outputs": [],
      "stateMutability": "nonpayable",
      "type": "function"
    },
    {
      "inputs": [],
      "name": "endElection",
      "outputs": [],
      "stateMutability": "nonpayable",
      "type": "function"
    },
    {
      "inputs": [
        {
          "internalType": "string",
          "name": "_name",
          "type": "string"
        }
      ],
      "name": "addCandidate",
      "outputs": [],
      "stateMutability": "nonpayable",
      "type": "function"
    },
    {
      "inputs": [
        {
          "internalType": "address",
          "name": "_voter",
          "type": "address"
        }
      ],
      "name": "addVoter",
      "outputs": [],
      "stateMutability": "nonpayable",
      "type": "function"
    },
    {
      "inputs": [
        {
          "internalType": "address",
          "name": "_current",
          "type": "address"
        }
      ],
      "name": "getRole",
      "outputs": [
        {
          "internalType": "uint256",
          "name": "",
          "type": "uint256"
        }
      ],
      "stateMutability": "view",
      "type": "function",
      "constant": true
    },
    {
      "inputs": [
        {
          "internalType": "uint256",
          "name": "_candidateId",
          "type": "uint256"
        }
      ],
      "name": "vote",
      "outputs": [],
      "stateMutability": "nonpayable",
      "type": "function"
    },
    {
      "inputs": [
        {
          "internalType": "uint256",
          "name": "_candidateId",
          "type": "uint256"
        }
      ],
      "name": "getCandidateDetails",
      "outputs": [
        {
          "internalType": "string",
          "name": "",
          "type": "string"
        },
        {
          "internalType": "uint256",
          "name": "",
          "type": "uint256"
        }
      ],
      "stateMutability": "view",
      "type": "function",
      "constant": true
    }
  ],
  "bytecode": "0x60806040526000600455600060055534801561001a57600080fd5b50336000806101000a81548173ffffffffffffffffffffffffffffffffffffffff021916908373ffffffffffffffffffffffffffffffffffffffff16021790555060008060146101000a81548160ff021916908360028111156100805761007f61008a565b5b02179055506100b9565b7f4e487b7100000000000000000000000000000000000000000000000000000000600052602160045260246000fd5b6115b3806100c86000396000f3fe608060405234801561001057600080fd5b50600436106100b45760003560e01c8063462e91ec11610071578063462e91ec1461019057806359f78468146101ac57806362d73eb8146101b65780638da5cb5b146101c057806398c07938146101de578063f4ab9adf146101fc576100b4565b80630121b93f146100b95780630d15fd77146100d55780632280043d146100f357806327f9fd50146101115780632d35a8a2146101425780634427673314610160575b600080fd5b6100d360048036038101906100ce9190610ccf565b610218565b005b6100dd6104c4565b6040516100ea9190610d0b565b60405180910390f35b6100fb6104ca565b6040516101089190610d9d565b60405180910390f35b61012b60048036038101906101269190610ccf565b6104dd565b604051610139929190610e51565b60405180910390f35b61014a6105f3565b6040516101579190610d0b565b60405180910390f35b61017a60048036038101906101759190610edf565b6105f9565b6040516101879190610d0b565b60405180910390f35b6101aa60048036038101906101a59190611041565b6106bc565b005b6101b4610842565b005b6101be610907565b005b6101c86109cc565b6040516101d59190611099565b60405180910390f35b6101e66109f0565b6040516101f39190610d0b565b60405180910390f35b61021660048036038101906102119190610edf565b6109f6565b005b6001600281111561022c5761022b610d26565b5b600060149054906101000a900460ff16600281111561024e5761024d610d26565b5b1461028e576040517f08c379a000000000000000000000000000000000000000000000000000000000815260040161028590611100565b60405180910390fd5b600360003373ffffffffffffffffffffffffffffffffffffffff1673ffffffffffffffffffffffffffffffffffffffff16815260200190815260200160002060009054906101000a900460ff1661031a576040517f08c379a00000000000000000000000000000000000000000000000000000000081526004016103119061116c565b60405180910390fd5b600260003373ffffffffffffffffffffffffffffffffffffffff1673ffffffffffffffffffffffffffffffffffffffff16815260200190815260200160002060009054906101000a900460ff16156103a7576040517f08c379a000000000000000000000000000000000000000000000000000000000815260040161039e906111d8565b60405180910390fd5b600081101580156103b9575060045481105b6103f8576040517f08c379a00000000000000000000000000000000000000000000000000000000081526004016103ef90611244565b60405180910390fd5b60016000828152602001908152602001600020600201600081548092919061041f90611293565b91905055506006600081548092919061043790611293565b91905055506001600260003373ffffffffffffffffffffffffffffffffffffffff1673ffffffffffffffffffffffffffffffffffffffff16815260200190815260200160002060006101000a81548160ff021916908315150217905550807f7f511e347bf51eed3be100b3194247d5207f05f3b33de7d31e3e8ee73199a04960405160405180910390a250565b60065481565b600060149054906101000a900460ff1681565b606060008083101580156104f2575060045483105b610531576040517f08c379a000000000000000000000000000000000000000000000000000000000815260040161052890611244565b60405180910390fd5b60016000848152602001908152602001600020600101600160008581526020019081526020016000206002015481805461056a9061130a565b80601f01602080910402602001604051908101604052809291908181526020018280546105969061130a565b80156105e35780601f106105b8576101008083540402835291602001916105e3565b820191906000526020600020905b8154815290600101906020018083116105c657829003601f168201915b5050505050915091509150915091565b60045481565b60008173ffffffffffffffffffffffffffffffffffffffff1660008054906101000a900473ffffffffffffffffffffffffffffffffffffffff1673ffffffffffffffffffffffffffffffffffffffff160361065757600190506106b7565b600360008373ffffffffffffffffffffffffffffffffffffffff1673ffffffffffffffffffffffffffffffffffffffff16815260200190815260200160002060009054906101000a900460ff16156106b257600290506106b7565b600390505b919050565b3373ffffffffffffffffffffffffffffffffffffffff1660008054906101000a900473ffffffffffffffffffffffffffffffffffffffff1673ffffffffffffffffffffffffffffffffffffffff161461074a576040517f08c379a000000000000000000000000000000000000000000000000000000000815260040161074190611387565b60405180910390fd5b6000600281111561075e5761075d610d26565b5b600060149054906101000a900460ff1660028111156107805761077f610d26565b5b146107c0576040517f08c379a00000000000000000000000000000000000000000000000000000000081526004016107b7906113f3565b60405180910390fd5b604051806060016040528060045481526020018281526020016000815250600160006004548152602001908152602001600020600082015181600001556020820151816001019080519060200190610819929190610be2565b50604082015181600201559050506004600081548092919061083a90611293565b919050555050565b60008054906101000a900473ffffffffffffffffffffffffffffffffffffffff1673ffffffffffffffffffffffffffffffffffffffff163373ffffffffffffffffffffffffffffffffffffffff161461089a57600080fd5b600160028111156108ae576108ad610d26565b5b600060149054906101000a900460ff1660028111156108d0576108cf610d26565b5b146108da57600080fd5b6002600060146101000a81548160ff02191690836002811115610900576108ff610d26565b5b0217905550565b60008054906101000a900473ffffffffffffffffffffffffffffffffffffffff1673ffffffffffffffffffffffffffffffffffffffff163373ffffffffffffffffffffffffffffffffffffffff161461095f57600080fd5b6000600281111561097357610972610d26565b5b600060149054906101000a900460ff16600281111561099557610994610d26565b5b1461099f57600080fd5b6001600060146101000a81548160ff021916908360028111156109c5576109c4610d26565b5b0217905550565b60008054906101000a900473ffffffffffffffffffffffffffffffffffffffff1681565b60055481565b3373ffffffffffffffffffffffffffffffffffffffff1660008054906101000a900473ffffffffffffffffffffffffffffffffffffffff1673ffffffffffffffffffffffffffffffffffffffff1614610a84576040517f08c379a0000000000000000000000000000000000000000000000000000000008152600401610a7b9061145f565b60405180910390fd5b600360008273ffffffffffffffffffffffffffffffffffffffff1673ffffffffffffffffffffffffffffffffffffffff16815260200190815260200160002060009054906101000a900460ff1615610b11576040517f08c379a0000000000000000000000000000000000000000000000000000000008152600401610b08906114cb565b60405180910390fd5b60006002811115610b2557610b24610d26565b5b600060149054906101000a900460ff166002811115610b4757610b46610d26565b5b14610b87576040517f08c379a0000000000000000000000000000000000000000000000000000000008152600401610b7e9061155d565b60405180910390fd5b6001600360008373ffffffffffffffffffffffffffffffffffffffff1673ffffffffffffffffffffffffffffffffffffffff16815260200190815260200160002060006101000a81548160ff02191690831515021790555050565b828054610bee9061130a565b90600052602060002090601f016020900481019282610c105760008555610c57565b82601f10610c2957805160ff1916838001178555610c57565b82800160010185558215610c57579182015b82811115610c56578251825591602001919060010190610c3b565b5b509050610c649190610c68565b5090565b5b80821115610c81576000816000905550600101610c69565b5090565b6000604051905090565b600080fd5b600080fd5b6000819050919050565b610cac81610c99565b8114610cb757600080fd5b50565b600081359050610cc981610ca3565b92915050565b600060208284031215610ce557610ce4610c8f565b5b6000610cf384828501610cba565b91505092915050565b610d0581610c99565b82525050565b6000602082019050610d206000830184610cfc565b92915050565b7f4e487b7100000000000000000000000000000000000000000000000000000000600052602160045260246000fd5b60038110610d6657610d65610d26565b5b50565b6000819050610d7782610d55565b919050565b6000610d8782610d69565b9050919050565b610d9781610d7c565b82525050565b6000602082019050610db26000830184610d8e565b92915050565b600081519050919050565b600082825260208201905092915050565b60005b83811015610df2578082015181840152602081019050610dd7565b83811115610e01576000848401525b50505050565b6000601f19601f8301169050919050565b6000610e2382610db8565b610e2d8185610dc3565b9350610e3d818560208601610dd4565b610e4681610e07565b840191505092915050565b60006040820190508181036000830152610e6b8185610e18565b9050610e7a6020830184610cfc565b9392505050565b600073ffffffffffffffffffffffffffffffffffffffff82169050919050565b6000610eac82610e81565b9050919050565b610ebc81610ea1565b8114610ec757600080fd5b50565b600081359050610ed981610eb3565b92915050565b600060208284031215610ef557610ef4610c8f565b5b6000610f0384828501610eca565b91505092915050565b600080fd5b600080fd5b7f4e487b7100000000000000000000000000000000000000000000000000000000600052604160045260246000fd5b610f4e82610e07565b810181811067ffffffffffffffff82111715610f6d57610f6c610f16565b5b80604052505050565b6000610f80610c85565b9050610f8c8282610f45565b919050565b600067ffffffffffffffff821115610fac57610fab610f16565b5b610fb582610e07565b9050602081019050919050565b82818337600083830152505050565b6000610fe4610fdf84610f91565b610f76565b90508281526020810184848401111561100057610fff610f11565b5b61100b848285610fc2565b509392505050565b600082601f83011261102857611027610f0c565b5b8135611038848260208601610fd1565b91505092915050565b60006020828403121561105757611056610c8f565b5b600082013567ffffffffffffffff81111561107557611074610c94565b5b61108184828501611013565b91505092915050565b61109381610ea1565b82525050565b60006020820190506110ae600083018461108a565b92915050565b7f456c656374696f6e206973206e6f7420696e2070726f67726573730000000000600082015250565b60006110ea601b83610dc3565b91506110f5826110b4565b602082019050919050565b60006020820190508181036000830152611119816110dd565b9050919050565b7f4e6f6e20617574686f726973656420757365722063616e6e6f7420766f746500600082015250565b6000611156601f83610dc3565b915061116182611120565b602082019050919050565b6000602082019050818103600083015261118581611149565b9050919050565b7f596f75206861766520616c726561647920766f74656400000000000000000000600082015250565b60006111c2601683610dc3565b91506111cd8261118c565b602082019050919050565b600060208201905081810360008301526111f1816111b5565b9050919050565b7f496e76616c69642063616e646964617465204944000000000000000000000000600082015250565b600061122e601483610dc3565b9150611239826111f8565b602082019050919050565b6000602082019050818103600083015261125d81611221565b9050919050565b7f4e487b7100000000000000000000000000000000000000000000000000000000600052601160045260246000fd5b600061129e82610c99565b91507fffffffffffffffffffffffffffffffffffffffffffffffffffffffffffffffff82036112d0576112cf611264565b5b600182019050919050565b7f4e487b7100000000000000000000000000000000000000000000000000000000600052602260045260246000fd5b6000600282049050600182168061132257607f821691505b602082108103611335576113346112db565b5b50919050565b7f4f6e6c79206f776e65722063616e206164642063616e64696461746573000000600082015250565b6000611371601d83610dc3565b915061137c8261133b565b602082019050919050565b600060208201905081810360008301526113a081611364565b9050919050565b7f456c656374696f6e2068617320616c7265616479207374617274656400000000600082015250565b60006113dd601c83610dc3565b91506113e8826113a7565b602082019050919050565b6000602082019050818103600083015261140c816113d0565b9050919050565b7f4f6e6c79206f776e65722063616e2061646420766f7465720000000000000000600082015250565b6000611449601883610dc3565b915061145482611413565b602082019050919050565b600060208201905081810360008301526114788161143c565b9050919050565b7f566f74657220616c726561647920616464656400000000000000000000000000600082015250565b60006114b5601383610dc3565b91506114c08261147f565b602082019050919050565b600060208201905081810360008301526114e4816114a8565b9050919050565b7f566f7465722063616e277420626520616464656420616674657220656c65637460008201527f696f6e2073746172746564000000000000000000000000000000000000000000602082015250565b6000611547602b83610dc3565b9150611552826114eb565b604082019050919050565b600060208201905081810360008301526115768161153a565b905091905056fea26469706673582212200aaf244b9dc4668f6940b57f97fe6231682bcaf9e93481cca841ea452fda40a064736f6c634300080e0033",
  "immutableReferences": {},
  "source": "// SPDX-License-Identifier: MIT\r\npragma solidity >=0.4.0 <0.9.0;\r\n\r\ncontract Election {\r\n    enum State {\r\n        NotStarted,\r\n        InProgress,\r\n        Ended\r\n    }\r\n\r\n    struct Candidate {\r\n        uint256 id;\r\n        string name;\r\n        uint256 voteCount;\r\n    }\r\n\r\n    address public owner;\r\n    State public electionState;\r\n\r\n    struct Voter {\r\n        uint256 id;\r\n        string name;\r\n    }\r\n\r\n    mapping(uint256 => Candidate) candidates;\r\n    mapping(address => bool) voted;\r\n\r\n    mapping(address => bool) isVoter;\r\n\r\n    uint256 public candidatesCount = 0;\r\n\r\n    uint256 public votersCount = 0;\r\n\r\n    uint256 public totalVotes;\r\n\r\n    constructor() {\r\n        owner = msg.sender;\r\n        electionState = State.NotStarted;\r\n        //addCandidate(\"Candidate 1\");\r\n        //addCandidate(\"Candidate 2\");\r\n    }\r\n\r\n    event Voted(uint256 indexed _candidateId);\r\n\r\n    function startElection() public {\r\n        require(msg.sender == owner);\r\n        require(electionState == State.NotStarted);\r\n        electionState = State.InProgress;\r\n    }\r\n\r\n    function endElection() public {\r\n        require(msg.sender == owner);\r\n        require(electionState == State.InProgress);\r\n\r\n        electionState = State.Ended;\r\n    }\r\n\r\n    function addCandidate(string memory _name) public {\r\n        require(owner == msg.sender, \"Only owner can add candidates\");\r\n        require(\r\n            electionState == State.NotStarted,\r\n            \"Election has already started\"\r\n        );\r\n\r\n        candidates[candidatesCount] = Candidate(candidatesCount, _name, 0);\r\n        candidatesCount++;\r\n    }\r\n\r\n    function addVoter(address _voter) public {\r\n        require(owner == msg.sender, \"Only owner can add voter\");\r\n        require(!isVoter[_voter], \"Voter already added\");\r\n        require(\r\n            electionState == State.NotStarted,\r\n            \"Voter can't be added after election started\"\r\n        );\r\n\r\n        isVoter[_voter] = true;\r\n    }\r\n\r\n    function getRole(address _current) public view returns (uint256) {\r\n        if (owner == _current) {\r\n            return 1;\r\n        } else if (isVoter[_current]) {\r\n            return 2;\r\n        } else {\r\n            return 3;\r\n        }\r\n    }\r\n\r\n    function vote(uint256 _candidateId) public {\r\n        require(\r\n            electionState == State.InProgress,\r\n            \"Election is not in progress\"\r\n        );\r\n        require(isVoter[msg.sender], \"Non authorised user cannot vote\");\r\n        require(!voted[msg.sender], \"You have already voted\");\r\n        require(\r\n            _candidateId >= 0 && _candidateId < candidatesCount,\r\n            \"Invalid candidate ID\"\r\n        );\r\n\r\n        candidates[_candidateId].voteCount++;\r\n        totalVotes++;\r\n        voted[msg.sender] = true;\r\n\r\n        emit Voted(_candidateId);\r\n    }\r\n\r\n    function getCandidateDetails(uint256 _candidateId)\r\n        public\r\n        view\r\n        returns (string memory, uint256)\r\n    {\r\n        require(\r\n            _candidateId >= 0 && _candidateId < candidatesCount,\r\n            \"Invalid candidate ID\"\r\n        );\r\n        return (\r\n            candidates[_candidateId].name,\r\n            candidates[_candidateId].voteCount\r\n        );\r\n    }\r\n}\r\n",
  "sourcePath": "C:\\Users\\msii\\Downloads\\CoCheDongThuanWEB\\BlockchainVoting\\contracts\\Voting.sol",
  "compiler": {
    "name": "solc",
    "version": "0.8.14+commit.80d49f37.Emscripten.clang"
  },
  "schemaVersion": "3.4.16",
  "updatedAt": "2023-12-30T10:09:22.819Z",
  "networkType": "ethereum",
  "devdoc": {
    "kind": "dev",
    "methods": {},
    "version": 1
  },
  "userdoc": {
    "kind": "user",
    "methods": {},
    "version": 1
  }
}